{
  "_format": "hh-sol-artifact-1",
  "contractName": "Sayac",
  "sourceName": "contracts/Sayac.sol",
  "abi": [
    {
      "inputs": [],
      "stateMutability": "nonpayable",
      "type": "constructor"
    },
    {
      "anonymous": false,
      "inputs": [
        {
          "indexed": true,
          "internalType": "uint256",
          "name": "creatingTime",
          "type": "uint256"
        }
      ],
      "name": "trackDecrement",
      "type": "event"
    },
    {
      "inputs": [],
      "name": "decrement",
      "outputs": [],
      "stateMutability": "nonpayable",
      "type": "function"
    },
    {
      "inputs": [],
      "name": "increment",
      "outputs": [],
      "stateMutability": "nonpayable",
      "type": "function"
    },
    {
      "inputs": [],
      "name": "number",
      "outputs": [
        {
          "internalType": "int256",
          "name": "",
          "type": "int256"
        }
      ],
      "stateMutability": "view",
      "type": "function"
    },
    {
      "inputs": [],
      "name": "owner",
      "outputs": [
        {
          "internalType": "address",
          "name": "",
          "type": "address"
        }
      ],
      "stateMutability": "view",
      "type": "function"
    }
  ],
  "bytecode": "0x6080604052600860005534801561001557600080fd5b5033600160006101000a81548173ffffffffffffffffffffffffffffffffffffffff021916908373ffffffffffffffffffffffffffffffffffffffff1602179055506103b9806100666000396000f3fe608060405234801561001057600080fd5b506004361061004c5760003560e01c80632baeceb7146100515780638381f58a1461005b5780638da5cb5b14610079578063d09de08a14610097575b600080fd5b6100596100a1565b005b610063610179565b60405161007091906101d9565b60405180910390f35b61008161017f565b60405161008e9190610235565b60405180910390f35b61009f6101a5565b005b3373ffffffffffffffffffffffffffffffffffffffff16600160009054906101000a900473ffffffffffffffffffffffffffffffffffffffff1673ffffffffffffffffffffffffffffffffffffffff1614610131576040517f08c379a0000000000000000000000000000000000000000000000000000000008152600401610128906102ad565b60405180910390fd5b600160008082825461014391906102fc565b92505081905550427f92c8560c644b79c84bf8c7b51e1a3458ead08cfc39f149c74b88103c5755081060405160405180910390a2565b60005481565b600160009054906101000a900473ffffffffffffffffffffffffffffffffffffffff1681565b60016000808282546101b7919061033f565b92505081905550565b6000819050919050565b6101d3816101c0565b82525050565b60006020820190506101ee60008301846101ca565b92915050565b600073ffffffffffffffffffffffffffffffffffffffff82169050919050565b600061021f826101f4565b9050919050565b61022f81610214565b82525050565b600060208201905061024a6000830184610226565b92915050565b600082825260208201905092915050565b7f796f757220617265206e6f7420746865206f776e657200000000000000000000600082015250565b6000610297601683610250565b91506102a282610261565b602082019050919050565b600060208201905081810360008301526102c68161028a565b9050919050565b7f4e487b7100000000000000000000000000000000000000000000000000000000600052601160045260246000fd5b6000610307826101c0565b9150610312836101c0565b9250828203905081811260008412168282136000851215161715610339576103386102cd565b5b92915050565b600061034a826101c0565b9150610355836101c0565b92508282019050828112156000831216838212600084121516171561037d5761037c6102cd565b5b9291505056fea2646970667358221220c096c287b48616225afc7c578f9e2ee7aa736bd75294f81137f58dfcc05b9eb864736f6c63430008120033",
  "linkReferences": {},
  "deployedLinkReferences": {}
}